{
  "_format": "hh-sol-artifact-1",
  "contractName": "EventConnect",
  "sourceName": "contracts/EventConnect.sol",
  "abi": [
    {
      "anonymous": false,
      "inputs": [
        {
          "indexed": true,
          "internalType": "uint256",
          "name": "eventID",
          "type": "uint256"
        },
        {
          "indexed": false,
          "internalType": "string",
          "name": "eventURI",
          "type": "string"
        },
        {
          "indexed": false,
          "internalType": "uint256",
          "name": "poapID",
          "type": "uint256"
        },
        {
          "indexed": false,
          "internalType": "string",
          "name": "streamKey",
          "type": "string"
        },
        {
          "indexed": false,
          "internalType": "address",
          "name": "creator",
          "type": "address"
        }
      ],
      "name": "EventCreated",
      "type": "event"
    },
    {
      "anonymous": false,
      "inputs": [
        {
          "indexed": true,
          "internalType": "uint256",
          "name": "eventID",
          "type": "uint256"
        }
      ],
      "name": "EventEnded",
      "type": "event"
    },
    {
      "anonymous": false,
      "inputs": [
        {
          "indexed": true,
          "internalType": "address",
          "name": "participant",
          "type": "address"
        },
        {
          "indexed": true,
          "internalType": "uint256",
          "name": "eventID",
          "type": "uint256"
        }
      ],
      "name": "ParticipantRegistered",
      "type": "event"
    },
    {
      "anonymous": false,
      "inputs": [
        {
          "indexed": true,
          "internalType": "address",
          "name": "participant",
          "type": "address"
        },
        {
          "indexed": true,
          "internalType": "uint256",
          "name": "eventID",
          "type": "uint256"
        }
      ],
      "name": "ParticipantUnregistered",
      "type": "event"
    },
    {
      "inputs": [
        {
          "internalType": "string",
          "name": "eventURI",
          "type": "string"
        },
        {
          "internalType": "string",
          "name": "streamKey",
          "type": "string"
        },
        {
          "internalType": "uint256",
          "name": "poapID",
          "type": "uint256"
        }
      ],
      "name": "addEvent",
      "outputs": [],
      "stateMutability": "nonpayable",
      "type": "function"
    },
    {
      "inputs": [
        {
          "internalType": "uint256",
          "name": "eventID",
          "type": "uint256"
        },
        {
          "internalType": "uint256",
          "name": "poapID",
          "type": "uint256"
        }
      ],
      "name": "addPoapID",
      "outputs": [],
      "stateMutability": "nonpayable",
      "type": "function"
    },
    {
      "inputs": [
        {
          "internalType": "uint256",
          "name": "eventID",
          "type": "uint256"
        }
      ],
      "name": "endEvent",
      "outputs": [],
      "stateMutability": "nonpayable",
      "type": "function"
    },
    {
      "inputs": [
        {
          "internalType": "uint256",
          "name": "",
          "type": "uint256"
        }
      ],
      "name": "events",
      "outputs": [
        {
          "internalType": "uint256",
          "name": "eventID",
          "type": "uint256"
        },
        {
          "internalType": "string",
          "name": "eventURI",
          "type": "string"
        },
        {
          "internalType": "uint256",
          "name": "poapID",
          "type": "uint256"
        },
        {
          "internalType": "string",
          "name": "streamKey",
          "type": "string"
        },
        {
          "internalType": "address",
          "name": "creator",
          "type": "address"
        },
        {
          "internalType": "bool",
          "name": "providePOAP",
          "type": "bool"
        },
        {
          "internalType": "bool",
          "name": "isEnded",
          "type": "bool"
        }
      ],
      "stateMutability": "view",
      "type": "function"
    },
    {
      "inputs": [],
      "name": "getAllEvents",
      "outputs": [
        {
          "components": [
            {
              "internalType": "uint256",
              "name": "eventID",
              "type": "uint256"
            },
            {
              "internalType": "string",
              "name": "eventURI",
              "type": "string"
            },
            {
              "internalType": "uint256",
              "name": "poapID",
              "type": "uint256"
            },
            {
              "internalType": "string",
              "name": "streamKey",
              "type": "string"
            },
            {
              "internalType": "address",
              "name": "creator",
              "type": "address"
            },
            {
              "internalType": "address[]",
              "name": "attendees",
              "type": "address[]"
            },
            {
              "internalType": "bool",
              "name": "providePOAP",
              "type": "bool"
            },
            {
              "internalType": "bool",
              "name": "isEnded",
              "type": "bool"
            }
          ],
          "internalType": "struct EventConnect.WebinarEvent[]",
          "name": "",
          "type": "tuple[]"
        }
      ],
      "stateMutability": "view",
      "type": "function"
    },
    {
      "inputs": [],
      "name": "getEventIndex",
      "outputs": [
        {
          "internalType": "uint256",
          "name": "",
          "type": "uint256"
        }
      ],
      "stateMutability": "view",
      "type": "function"
    },
    {
      "inputs": [
        {
          "internalType": "uint256",
          "name": "eventID",
          "type": "uint256"
        }
      ],
      "name": "getEventParticipants",
      "outputs": [
        {
          "internalType": "address[]",
          "name": "",
          "type": "address[]"
        }
      ],
      "stateMutability": "view",
      "type": "function"
    },
    {
      "inputs": [
        {
          "internalType": "uint256",
          "name": "eventID",
          "type": "uint256"
        }
      ],
      "name": "getOneEvent",
      "outputs": [
        {
          "components": [
            {
              "internalType": "uint256",
              "name": "eventID",
              "type": "uint256"
            },
            {
              "internalType": "string",
              "name": "eventURI",
              "type": "string"
            },
            {
              "internalType": "uint256",
              "name": "poapID",
              "type": "uint256"
            },
            {
              "internalType": "string",
              "name": "streamKey",
              "type": "string"
            },
            {
              "internalType": "address",
              "name": "creator",
              "type": "address"
            },
            {
              "internalType": "address[]",
              "name": "attendees",
              "type": "address[]"
            },
            {
              "internalType": "bool",
              "name": "providePOAP",
              "type": "bool"
            },
            {
              "internalType": "bool",
              "name": "isEnded",
              "type": "bool"
            }
          ],
          "internalType": "struct EventConnect.WebinarEvent",
          "name": "",
          "type": "tuple"
        }
      ],
      "stateMutability": "view",
      "type": "function"
    },
    {
      "inputs": [
        {
          "internalType": "uint256",
          "name": "eventID",
          "type": "uint256"
        }
      ],
      "name": "getPoapID",
      "outputs": [
        {
          "internalType": "uint256",
          "name": "",
          "type": "uint256"
        }
      ],
      "stateMutability": "view",
      "type": "function"
    },
    {
      "inputs": [
        {
          "internalType": "uint256",
          "name": "eventID",
          "type": "uint256"
        },
        {
          "internalType": "address",
          "name": "participant",
          "type": "address"
        }
      ],
      "name": "isParticipantRegistered",
      "outputs": [
        {
          "internalType": "bool",
          "name": "",
          "type": "bool"
        }
      ],
      "stateMutability": "view",
      "type": "function"
    },
    {
      "inputs": [
        {
          "internalType": "uint256",
          "name": "eventID",
          "type": "uint256"
        }
      ],
      "name": "register",
      "outputs": [
        {
          "internalType": "bool",
          "name": "",
          "type": "bool"
        }
      ],
      "stateMutability": "nonpayable",
      "type": "function"
    },
    {
      "inputs": [],
      "name": "s_eventID",
      "outputs": [
        {
          "internalType": "uint256",
          "name": "",
          "type": "uint256"
        }
      ],
      "stateMutability": "view",
      "type": "function"
    },
    {
      "inputs": [
        {
          "internalType": "uint256",
          "name": "eventID",
          "type": "uint256"
        }
      ],
      "name": "unregister",
      "outputs": [],
      "stateMutability": "nonpayable",
      "type": "function"
    }
  ],
  "bytecode": "0x60806040526000805534801561001457600080fd5b50612812806100246000396000f3fe608060405234801561001057600080fd5b50600436106100cf5760003560e01c806381ef25071161008c578063b50e018211610066578063b50e018214610216578063c27a500d14610246578063cb84e53714610264578063f207564e14610294576100cf565b806381ef2507146101ae578063a02b161e146101de578063a6fd95b6146101fa576100cf565b80630b61ebb6146100d45780630b791430146100f257806310241a4414610128578063330a347b146101585780633f6fcd0c146101745780634da19f2014610192575b600080fd5b6100dc6102c4565b6040516100e991906118e7565b60405180910390f35b61010c60048036038101906101079190611942565b6102ca565b60405161011f9796959493929190611a5b565b60405180910390f35b610142600480360381019061013d9190611942565b610466565b60405161014f9190611cbc565b60405180910390f35b610172600480360381019061016d9190611942565b61077e565b005b61017c6108a3565b60405161018991906118e7565b60405180910390f35b6101ac60048036038101906101a79190611e13565b6108ac565b005b6101c860048036038101906101c39190611942565b610aba565b6040516101d591906118e7565b60405180910390f35b6101f860048036038101906101f39190611942565b610b2d565b005b610214600480360381019061020f9190611e9e565b610f6d565b005b610230600480360381019061022b9190611942565b61104f565b60405161023d9190611f4d565b60405180910390f35b61024e611147565b60405161025b91906120ef565b60405180910390f35b61027e6004803603810190610279919061213d565b6113f9565b60405161028b919061217d565b60405180910390f35b6102ae60048036038101906102a99190611942565b61152f565b6040516102bb919061217d565b60405180910390f35b60005481565b600181815481106102da57600080fd5b9060005260206000209060070201600091509050806000015490806001018054610303906121c7565b80601f016020809104026020016040519081016040528092919081815260200182805461032f906121c7565b801561037c5780601f106103515761010080835404028352916020019161037c565b820191906000526020600020905b81548152906001019060200180831161035f57829003601f168201915b505050505090806002015490806003018054610397906121c7565b80601f01602080910402602001604051908101604052809291908181526020018280546103c3906121c7565b80156104105780601f106103e557610100808354040283529160200191610410565b820191906000526020600020905b8154815290600101906020018083116103f357829003601f168201915b5050505050908060040160009054906101000a900473ffffffffffffffffffffffffffffffffffffffff16908060060160009054906101000a900460ff16908060060160019054906101000a900460ff16905087565b61046e6117c8565b6000548211156104b3576040517f08c379a00000000000000000000000000000000000000000000000000000000081526004016104aa90612244565b60405180910390fd5b60008210156104f7576040517f08c379a00000000000000000000000000000000000000000000000000000000081526004016104ee90612244565b60405180910390fd5b6001828154811061050b5761050a612264565b5b9060005260206000209060070201604051806101000160405290816000820154815260200160018201805461053f906121c7565b80601f016020809104026020016040519081016040528092919081815260200182805461056b906121c7565b80156105b85780601f1061058d576101008083540402835291602001916105b8565b820191906000526020600020905b81548152906001019060200180831161059b57829003601f168201915b50505050508152602001600282015481526020016003820180546105db906121c7565b80601f0160208091040260200160405190810160405280929190818152602001828054610607906121c7565b80156106545780601f1061062957610100808354040283529160200191610654565b820191906000526020600020905b81548152906001019060200180831161063757829003601f168201915b505050505081526020016004820160009054906101000a900473ffffffffffffffffffffffffffffffffffffffff1673ffffffffffffffffffffffffffffffffffffffff1673ffffffffffffffffffffffffffffffffffffffff1681526020016005820180548060200260200160405190810160405280929190818152602001828054801561073857602002820191906000526020600020905b8160009054906101000a900473ffffffffffffffffffffffffffffffffffffffff1673ffffffffffffffffffffffffffffffffffffffff16815260200190600101908083116106ee575b505050505081526020016006820160009054906101000a900460ff161515151581526020016006820160019054906101000a900460ff1615151515815250509050919050565b6000548111156107c3576040517f08c379a00000000000000000000000000000000000000000000000000000000081526004016107ba90612244565b60405180910390fd5b600181815481106107d7576107d6612264565b5b906000526020600020906007020160060160019054906101000a900460ff1615610836576040517f08c379a000000000000000000000000000000000000000000000000000000000815260040161082d906122df565b60405180910390fd5b600180828154811061084b5761084a612264565b5b906000526020600020906007020160060160016101000a81548160ff021916908315150217905550807f60ec355296fe18fa9035fd377bd45120aad5d6ca18619a7b72cbd175771eca0a60405160405180910390a250565b60008054905090565b600160405180610100016040528060005481526020018581526020018381526020018481526020013373ffffffffffffffffffffffffffffffffffffffff168152602001600067ffffffffffffffff81111561090b5761090a611ce8565b5b6040519080825280602002602001820160405280156109395781602001602082028036833780820191505090505b50815260200160001515815260200160001515815250908060018154018082558091505060019003906000526020600020906007020160009091909190915060008201518160000155602082015181600101908161099791906124ab565b506040820151816002015560608201518160030190816109b791906124ab565b5060808201518160040160006101000a81548173ffffffffffffffffffffffffffffffffffffffff021916908373ffffffffffffffffffffffffffffffffffffffff16021790555060a0820151816005019080519060200190610a1b929190611827565b5060c08201518160060160006101000a81548160ff02191690831515021790555060e08201518160060160016101000a81548160ff02191690831515021790555050506000547fd5940c368431a41a87b2c5f013ccb80a1e535a9b190514ce3b13387a851db06784838533604051610a96949392919061257d565b60405180910390a2600080815480929190610ab0906125ff565b9190505550505050565b60008054821115610b00576040517f08c379a0000000000000000000000000000000000000000000000000000000008152600401610af790612244565b60405180910390fd5b60018281548110610b1457610b13612264565b5b9060005260206000209060070201600201549050919050565b6001805490508110610b74576040517f08c379a0000000000000000000000000000000000000000000000000000000008152600401610b6b90612244565b60405180910390fd5b6000805b60018381548110610b8c57610b8b612264565b5b906000526020600020906007020160050180549050811015610c58573373ffffffffffffffffffffffffffffffffffffffff1660018481548110610bd357610bd2612264565b5b90600052602060002090600702016005018281548110610bf657610bf5612264565b5b9060005260206000200160009054906101000a900473ffffffffffffffffffffffffffffffffffffffff1673ffffffffffffffffffffffffffffffffffffffff1603610c455760019150610c58565b8080610c50906125ff565b915050610b78565b5080610c99576040517f08c379a0000000000000000000000000000000000000000000000000000000008152600401610c9090612693565b60405180910390fd5b60005b60018381548110610cb057610caf612264565b5b906000526020600020906007020160050180549050811015610f24573373ffffffffffffffffffffffffffffffffffffffff1660018481548110610cf757610cf6612264565b5b90600052602060002090600702016005018281548110610d1a57610d19612264565b5b9060005260206000200160009054906101000a900473ffffffffffffffffffffffffffffffffffffffff1673ffffffffffffffffffffffffffffffffffffffff1603610f115760008190505b6001808581548110610d7b57610d7a612264565b5b906000526020600020906007020160050180549050610d9a91906126b3565b811015610ea15760018481548110610db557610db4612264565b5b9060005260206000209060070201600501600182610dd391906126e7565b81548110610de457610de3612264565b5b9060005260206000200160009054906101000a900473ffffffffffffffffffffffffffffffffffffffff1660018581548110610e2357610e22612264565b5b90600052602060002090600702016005018281548110610e4657610e45612264565b5b9060005260206000200160006101000a81548173ffffffffffffffffffffffffffffffffffffffff021916908373ffffffffffffffffffffffffffffffffffffffff1602179055508080610e99906125ff565b915050610d66565b5060018381548110610eb657610eb5612264565b5b9060005260206000209060070201600501805480610ed757610ed661271b565b5b6001900381819060005260206000200160006101000a81549073ffffffffffffffffffffffffffffffffffffffff02191690559055610f24565b8080610f1c906125ff565b915050610c9c565b50813373ffffffffffffffffffffffffffffffffffffffff167fee569ec217a962e3109a0ded7ff3fd533a78608f873d08be04564717ea17831f60405160405180910390a35050565b600054821115610fb2576040517f08c379a0000000000000000000000000000000000000000000000000000000008152600401610fa990612244565b60405180910390fd5b600060018381548110610fc857610fc7612264565b5b90600052602060002090600702016002015414610fe457600080fd5b8060018381548110610ff957610ff8612264565b5b906000526020600020906007020160020181905550600180838154811061102357611022612264565b5b906000526020600020906007020160060160006101000a81548160ff0219169083151502179055505050565b6060600054821115611096576040517f08c379a000000000000000000000000000000000000000000000000000000000815260040161108d90612244565b60405180910390fd5b600182815481106110aa576110a9612264565b5b906000526020600020906007020160050180548060200260200160405190810160405280929190818152602001828054801561113b57602002820191906000526020600020905b8160009054906101000a900473ffffffffffffffffffffffffffffffffffffffff1673ffffffffffffffffffffffffffffffffffffffff16815260200190600101908083116110f1575b50505050509050919050565b60606001805480602002602001604051908101604052809291908181526020016000905b828210156113f0578382906000526020600020906007020160405180610100016040529081600082015481526020016001820180546111a9906121c7565b80601f01602080910402602001604051908101604052809291908181526020018280546111d5906121c7565b80156112225780601f106111f757610100808354040283529160200191611222565b820191906000526020600020905b81548152906001019060200180831161120557829003601f168201915b5050505050815260200160028201548152602001600382018054611245906121c7565b80601f0160208091040260200160405190810160405280929190818152602001828054611271906121c7565b80156112be5780601f10611293576101008083540402835291602001916112be565b820191906000526020600020905b8154815290600101906020018083116112a157829003601f168201915b505050505081526020016004820160009054906101000a900473ffffffffffffffffffffffffffffffffffffffff1673ffffffffffffffffffffffffffffffffffffffff1673ffffffffffffffffffffffffffffffffffffffff168152602001600582018054806020026020016040519081016040528092919081815260200182805480156113a257602002820191906000526020600020905b8160009054906101000a900473ffffffffffffffffffffffffffffffffffffffff1673ffffffffffffffffffffffffffffffffffffffff1681526020019060010190808311611358575b505050505081526020016006820160009054906101000a900460ff161515151581526020016006820160019054906101000a900460ff1615151515815250508152602001906001019061116b565b50505050905090565b6000805483111561143f576040517f08c379a000000000000000000000000000000000000000000000000000000000815260040161143690612244565b60405180910390fd5b60005b6001848154811061145657611455612264565b5b906000526020600020906007020160050180549050811015611523578273ffffffffffffffffffffffffffffffffffffffff166001858154811061149d5761149c612264565b5b906000526020600020906007020160050182815481106114c0576114bf612264565b5b9060005260206000200160009054906101000a900473ffffffffffffffffffffffffffffffffffffffff1673ffffffffffffffffffffffffffffffffffffffff1603611510576001915050611529565b808061151b906125ff565b915050611442565b50600090505b92915050565b60008054821115611575576040517f08c379a000000000000000000000000000000000000000000000000000000000815260040161156c90612244565b60405180910390fd5b6001828154811061158957611588612264565b5b906000526020600020906007020160060160019054906101000a900460ff16156115e8576040517f08c379a00000000000000000000000000000000000000000000000000000000081526004016115df906122df565b60405180910390fd5b6000600183815481106115fe576115fd612264565b5b9060005260206000209060070201600501805490508110156116f3573373ffffffffffffffffffffffffffffffffffffffff166001848154811061164557611644612264565b5b9060005260206000209060070201600501828154811061166857611667612264565b5b9060005260206000200160009054906101000a900473ffffffffffffffffffffffffffffffffffffffff1673ffffffffffffffffffffffffffffffffffffffff16036116e9576040517f08c379a00000000000000000000000000000000000000000000000000000000081526004016116e0906127bc565b60405180910390fd5b60009150506117c3565b506001828154811061170857611707612264565b5b9060005260206000209060070201600501339080600181540180825580915050600190039060005260206000200160009091909190916101000a81548173ffffffffffffffffffffffffffffffffffffffff021916908373ffffffffffffffffffffffffffffffffffffffff160217905550813373ffffffffffffffffffffffffffffffffffffffff167fa48418fa780c651bef841ca082131ed20bc20c620dd0459bba9ab78550f5d62360405160405180910390a3600190505b919050565b60405180610100016040528060008152602001606081526020016000815260200160608152602001600073ffffffffffffffffffffffffffffffffffffffff168152602001606081526020016000151581526020016000151581525090565b8280548282559060005260206000209081019282156118a0579160200282015b8281111561189f5782518260006101000a81548173ffffffffffffffffffffffffffffffffffffffff021916908373ffffffffffffffffffffffffffffffffffffffff16021790555091602001919060010190611847565b5b5090506118ad91906118b1565b5090565b5b808211156118ca5760008160009055506001016118b2565b5090565b6000819050919050565b6118e1816118ce565b82525050565b60006020820190506118fc60008301846118d8565b92915050565b6000604051905090565b600080fd5b600080fd5b61191f816118ce565b811461192a57600080fd5b50565b60008135905061193c81611916565b92915050565b6000602082840312156119585761195761190c565b5b60006119668482850161192d565b91505092915050565b600081519050919050565b600082825260208201905092915050565b60005b838110156119a957808201518184015260208101905061198e565b60008484015250505050565b6000601f19601f8301169050919050565b60006119d18261196f565b6119db818561197a565b93506119eb81856020860161198b565b6119f4816119b5565b840191505092915050565b600073ffffffffffffffffffffffffffffffffffffffff82169050919050565b6000611a2a826119ff565b9050919050565b611a3a81611a1f565b82525050565b60008115159050919050565b611a5581611a40565b82525050565b600060e082019050611a70600083018a6118d8565b8181036020830152611a8281896119c6565b9050611a9160408301886118d8565b8181036060830152611aa381876119c6565b9050611ab26080830186611a31565b611abf60a0830185611a4c565b611acc60c0830184611a4c565b98975050505050505050565b611ae1816118ce565b82525050565b600082825260208201905092915050565b6000611b038261196f565b611b0d8185611ae7565b9350611b1d81856020860161198b565b611b26816119b5565b840191505092915050565b611b3a81611a1f565b82525050565b600081519050919050565b600082825260208201905092915050565b6000819050602082019050919050565b6000611b788383611b31565b60208301905092915050565b6000602082019050919050565b6000611b9c82611b40565b611ba68185611b4b565b9350611bb183611b5c565b8060005b83811015611be2578151611bc98882611b6c565b9750611bd483611b84565b925050600181019050611bb5565b5085935050505092915050565b611bf881611a40565b82525050565b600061010083016000830151611c176000860182611ad8565b5060208301518482036020860152611c2f8282611af8565b9150506040830151611c446040860182611ad8565b5060608301518482036060860152611c5c8282611af8565b9150506080830151611c716080860182611b31565b5060a083015184820360a0860152611c898282611b91565b91505060c0830151611c9e60c0860182611bef565b5060e0830151611cb160e0860182611bef565b508091505092915050565b60006020820190508181036000830152611cd68184611bfe565b905092915050565b600080fd5b600080fd5b7f4e487b7100000000000000000000000000000000000000000000000000000000600052604160045260246000fd5b611d20826119b5565b810181811067ffffffffffffffff82111715611d3f57611d3e611ce8565b5b80604052505050565b6000611d52611902565b9050611d5e8282611d17565b919050565b600067ffffffffffffffff821115611d7e57611d7d611ce8565b5b611d87826119b5565b9050602081019050919050565b82818337600083830152505050565b6000611db6611db184611d63565b611d48565b905082815260208101848484011115611dd257611dd1611ce3565b5b611ddd848285611d94565b509392505050565b600082601f830112611dfa57611df9611cde565b5b8135611e0a848260208601611da3565b91505092915050565b600080600060608486031215611e2c57611e2b61190c565b5b600084013567ffffffffffffffff811115611e4a57611e49611911565b5b611e5686828701611de5565b935050602084013567ffffffffffffffff811115611e7757611e76611911565b5b611e8386828701611de5565b9250506040611e948682870161192d565b9150509250925092565b60008060408385031215611eb557611eb461190c565b5b6000611ec38582860161192d565b9250506020611ed48582860161192d565b9150509250929050565b600082825260208201905092915050565b6000611efa82611b40565b611f048185611ede565b9350611f0f83611b5c565b8060005b83811015611f40578151611f278882611b6c565b9750611f3283611b84565b925050600181019050611f13565b5085935050505092915050565b60006020820190508181036000830152611f678184611eef565b905092915050565b600081519050919050565b600082825260208201905092915050565b6000819050602082019050919050565b600061010083016000830151611fb46000860182611ad8565b5060208301518482036020860152611fcc8282611af8565b9150506040830151611fe16040860182611ad8565b5060608301518482036060860152611ff98282611af8565b915050608083015161200e6080860182611b31565b5060a083015184820360a08601526120268282611b91565b91505060c083015161203b60c0860182611bef565b5060e083015161204e60e0860182611bef565b508091505092915050565b60006120658383611f9b565b905092915050565b6000602082019050919050565b600061208582611f6f565b61208f8185611f7a565b9350836020820285016120a185611f8b565b8060005b858110156120dd57848403895281516120be8582612059565b94506120c98361206d565b925060208a019950506001810190506120a5565b50829750879550505050505092915050565b60006020820190508181036000830152612109818461207a565b905092915050565b61211a81611a1f565b811461212557600080fd5b50565b60008135905061213781612111565b92915050565b600080604083850312156121545761215361190c565b5b60006121628582860161192d565b925050602061217385828601612128565b9150509250929050565b60006020820190506121926000830184611a4c565b92915050565b7f4e487b7100000000000000000000000000000000000000000000000000000000600052602260045260246000fd5b600060028204905060018216806121df57607f821691505b6020821081036121f2576121f1612198565b5b50919050565b7f496e76616c6964206576656e7420696e64657800000000000000000000000000600082015250565b600061222e60138361197a565b9150612239826121f8565b602082019050919050565b6000602082019050818103600083015261225d81612221565b9050919050565b7f4e487b7100000000000000000000000000000000000000000000000000000000600052603260045260246000fd5b7f4576656e7420416c72656164792046696e736865642100000000000000000000600082015250565b60006122c960168361197a565b91506122d482612293565b602082019050919050565b600060208201905081810360008301526122f8816122bc565b9050919050565b60008190508160005260206000209050919050565b60006020601f8301049050919050565b600082821b905092915050565b6000600883026123617fffffffffffffffffffffffffffffffffffffffffffffffffffffffffffffffff82612324565b61236b8683612324565b95508019841693508086168417925050509392505050565b6000819050919050565b60006123a86123a361239e846118ce565b612383565b6118ce565b9050919050565b6000819050919050565b6123c28361238d565b6123d66123ce826123af565b848454612331565b825550505050565b600090565b6123eb6123de565b6123f68184846123b9565b505050565b5b8181101561241a5761240f6000826123e3565b6001810190506123fc565b5050565b601f82111561245f57612430816122ff565b61243984612314565b81016020851015612448578190505b61245c61245485612314565b8301826123fb565b50505b505050565b600082821c905092915050565b600061248260001984600802612464565b1980831691505092915050565b600061249b8383612471565b9150826002028217905092915050565b6124b48261196f565b67ffffffffffffffff8111156124cd576124cc611ce8565b5b6124d782546121c7565b6124e282828561241e565b600060209050601f8311600181146125155760008415612503578287015190505b61250d858261248f565b865550612575565b601f198416612523866122ff565b60005b8281101561254b57848901518255600182019150602085019450602081019050612526565b868310156125685784890151612564601f891682612471565b8355505b6001600288020188555050505b505050505050565b6000608082019050818103600083015261259781876119c6565b90506125a660208301866118d8565b81810360408301526125b881856119c6565b90506125c76060830184611a31565b95945050505050565b7f4e487b7100000000000000000000000000000000000000000000000000000000600052601160045260246000fd5b600061260a826118ce565b91507fffffffffffffffffffffffffffffffffffffffffffffffffffffffffffffffff820361263c5761263b6125d0565b5b600182019050919050565b7f5061727469636970616e74206973206e6f742072656769737465726564000000600082015250565b600061267d601d8361197a565b915061268882612647565b602082019050919050565b600060208201905081810360008301526126ac81612670565b9050919050565b60006126be826118ce565b91506126c9836118ce565b92508282039050818111156126e1576126e06125d0565b5b92915050565b60006126f2826118ce565b91506126fd836118ce565b9250828201905080821115612715576127146125d0565b5b92915050565b7f4e487b7100000000000000000000000000000000000000000000000000000000600052603160045260246000fd5b7f5061727469636970616e7420697320616c72656164792072656769737465726560008201527f6400000000000000000000000000000000000000000000000000000000000000602082015250565b60006127a660218361197a565b91506127b18261274a565b604082019050919050565b600060208201905081810360008301526127d581612799565b905091905056fea26469706673582212202051a6ae4b7f19084056a2a2c64e994bcf219fb82fb8a0237ac1d81ef6521c5064736f6c63430008130033",
  "linkReferences": {},
  "deployedLinkReferences": {}
}